{
  "contractName": "Marketplace",
  "abi": [
    {
      "anonymous": false,
      "inputs": [
        {
          "indexed": false,
          "internalType": "uint256",
          "name": "id",
          "type": "uint256"
        },
        {
          "indexed": false,
          "internalType": "string",
          "name": "link",
          "type": "string"
        },
        {
          "indexed": false,
          "internalType": "string",
          "name": "name",
          "type": "string"
        },
        {
          "indexed": false,
          "internalType": "uint256",
          "name": "price",
          "type": "uint256"
        },
        {
          "indexed": false,
          "internalType": "bool",
          "name": "purchased",
          "type": "bool"
        },
        {
          "indexed": false,
          "internalType": "address payable",
          "name": "owner",
          "type": "address"
        }
      ],
      "name": "NoteCreated",
      "type": "event"
    },
    {
      "anonymous": false,
      "inputs": [
        {
          "indexed": false,
          "internalType": "uint256",
          "name": "id",
          "type": "uint256"
        },
        {
          "indexed": false,
          "internalType": "string",
          "name": "link",
          "type": "string"
        },
        {
          "indexed": false,
          "internalType": "string",
          "name": "name",
          "type": "string"
        },
        {
          "indexed": false,
          "internalType": "uint256",
          "name": "price",
          "type": "uint256"
        },
        {
          "indexed": false,
          "internalType": "bool",
          "name": "purchased",
          "type": "bool"
        },
        {
          "indexed": false,
          "internalType": "address payable",
          "name": "owner",
          "type": "address"
        }
      ],
      "name": "NotePurchased",
      "type": "event"
    },
    {
      "constant": true,
      "inputs": [],
      "name": "index",
      "outputs": [
        {
          "internalType": "uint256",
          "name": "",
          "type": "uint256"
        }
      ],
      "payable": false,
      "stateMutability": "view",
      "type": "function"
    },
    {
      "constant": true,
      "inputs": [
        {
          "internalType": "uint256",
          "name": "",
          "type": "uint256"
        }
      ],
      "name": "listings",
      "outputs": [
        {
          "internalType": "uint256",
          "name": "id",
          "type": "uint256"
        },
        {
          "internalType": "string",
          "name": "link",
          "type": "string"
        },
        {
          "internalType": "string",
          "name": "name",
          "type": "string"
        },
        {
          "internalType": "uint256",
          "name": "price",
          "type": "uint256"
        },
        {
          "internalType": "bool",
          "name": "purchased",
          "type": "bool"
        },
        {
          "internalType": "address payable",
          "name": "owner",
          "type": "address"
        }
      ],
      "payable": false,
      "stateMutability": "view",
      "type": "function"
    },
    {
      "constant": false,
      "inputs": [
        {
          "internalType": "string",
          "name": "_link",
          "type": "string"
        },
        {
          "internalType": "string",
          "name": "_name",
          "type": "string"
        },
        {
          "internalType": "uint256",
          "name": "_price",
          "type": "uint256"
        }
      ],
      "name": "createListing",
      "outputs": [],
      "payable": false,
      "stateMutability": "nonpayable",
      "type": "function"
    },
    {
      "constant": false,
      "inputs": [
        {
          "internalType": "uint256",
          "name": "_noteId",
          "type": "uint256"
        }
      ],
      "name": "purchaseNote",
      "outputs": [],
      "payable": true,
      "stateMutability": "payable",
      "type": "function"
    }
  ],
  "bytecode": "0x608060405234801561001057600080fd5b50610da9806100206000396000f3fe60806040526004361061003f5760003560e01c80632986c0e5146100445780634652c3e21461006f5780637de04ebd146101d8578063de74e57b14610206575b600080fd5b34801561005057600080fd5b50610059610372565b6040518082815260200191505060405180910390f35b34801561007b57600080fd5b506101d66004803603606081101561009257600080fd5b81019080803590602001906401000000008111156100af57600080fd5b8201836020820111156100c157600080fd5b803590602001918460018302840111640100000000831117156100e357600080fd5b91908080601f016020809104026020016040519081016040528093929190818152602001838380828437600081840152601f19601f8201169050808301925050505050505091929192908035906020019064010000000081111561014657600080fd5b82018360208201111561015857600080fd5b8035906020019184600183028401116401000000008311171561017a57600080fd5b91908080601f016020809104026020016040519081016040528093929190818152602001838380828437600081840152601f19601f82011690508083019250505050505050919291929080359060200190929190505050610378565b005b610204600480360360208110156101ee57600080fd5b81019080803590602001909291905050506105fe565b005b34801561021257600080fd5b5061023f6004803603602081101561022957600080fd5b8101908080359060200190929190505050610ae8565b604051808781526020018060200180602001868152602001851515151581526020018473ffffffffffffffffffffffffffffffffffffffff1673ffffffffffffffffffffffffffffffffffffffff168152602001838103835288818151815260200191508051906020019080838360005b838110156102cb5780820151818401526020810190506102b0565b50505050905090810190601f1680156102f85780820380516001836020036101000a031916815260200191505b50838103825287818151815260200191508051906020019080838360005b83811015610331578082015181840152602081019050610316565b50505050905090810190601f16801561035e5780820380516001836020036101000a031916815260200191505b509850505050505050505060405180910390f35b60005481565b60008081548092919060010191905055506040518060c0016040528060005481526020018481526020018381526020018281526020016000151581526020013373ffffffffffffffffffffffffffffffffffffffff16815250600160008054815260200190815260200160002060008201518160000155602082015181600101908051906020019061040b929190610c81565b506040820151816002019080519060200190610428929190610c81565b506060820151816003015560808201518160040160006101000a81548160ff02191690831515021790555060a08201518160040160016101000a81548173ffffffffffffffffffffffffffffffffffffffff021916908373ffffffffffffffffffffffffffffffffffffffff1602179055509050507fdc3cf24f530180965b53772a6c6e82b808a7d2c5032ff00cc11572c15d5dd150600054848484600033604051808781526020018060200180602001868152602001851515151581526020018473ffffffffffffffffffffffffffffffffffffffff1673ffffffffffffffffffffffffffffffffffffffff168152602001838103835288818151815260200191508051906020019080838360005b83811015610553578082015181840152602081019050610538565b50505050905090810190601f1680156105805780820380516001836020036101000a031916815260200191505b50838103825287818151815260200191508051906020019080838360005b838110156105b957808201518184015260208101905061059e565b50505050905090810190601f1680156105e65780820380516001836020036101000a031916815260200191505b509850505050505050505060405180910390a1505050565b610606610d01565b600160008381526020019081526020016000206040518060c001604052908160008201548152602001600182018054600181600116156101000203166002900480601f0160208091040260200160405190810160405280929190818152602001828054600181600116156101000203166002900480156106c75780601f1061069c576101008083540402835291602001916106c7565b820191906000526020600020905b8154815290600101906020018083116106aa57829003601f168201915b50505050508152602001600282018054600181600116156101000203166002900480601f0160208091040260200160405190810160405280929190818152602001828054600181600116156101000203166002900480156107695780601f1061073e57610100808354040283529160200191610769565b820191906000526020600020905b81548152906001019060200180831161074c57829003601f168201915b50505050508152602001600382015481526020016004820160009054906101000a900460ff161515151581526020016004820160019054906101000a900473ffffffffffffffffffffffffffffffffffffffff1673ffffffffffffffffffffffffffffffffffffffff1673ffffffffffffffffffffffffffffffffffffffff1681525050905060008160a001519050816060015134101561080957600080fd5b81608001511561081857600080fd5b338260a0019073ffffffffffffffffffffffffffffffffffffffff16908173ffffffffffffffffffffffffffffffffffffffff16815250506001826080019015159081151581525050816001600085815260200190815260200160002060008201518160000155602082015181600101908051906020019061089b929190610c81565b5060408201518160020190805190602001906108b8929190610c81565b506060820151816003015560808201518160040160006101000a81548160ff02191690831515021790555060a08201518160040160016101000a81548173ffffffffffffffffffffffffffffffffffffffff021916908373ffffffffffffffffffffffffffffffffffffffff1602179055509050508073ffffffffffffffffffffffffffffffffffffffff166108fc349081150290604051600060405180830381858888f19350505050158015610973573d6000803e3d6000fd5b507fdc3cf24f530180965b53772a6c6e82b808a7d2c5032ff00cc11572c15d5dd15060005483602001518460400151856060015186608001518760a00151604051808781526020018060200180602001868152602001851515151581526020018473ffffffffffffffffffffffffffffffffffffffff1673ffffffffffffffffffffffffffffffffffffffff168152602001838103835288818151815260200191508051906020019080838360005b83811015610a3d578082015181840152602081019050610a22565b50505050905090810190601f168015610a6a5780820380516001836020036101000a031916815260200191505b50838103825287818151815260200191508051906020019080838360005b83811015610aa3578082015181840152602081019050610a88565b50505050905090810190601f168015610ad05780820380516001836020036101000a031916815260200191505b509850505050505050505060405180910390a1505050565b6001602052806000526040600020600091509050806000015490806001018054600181600116156101000203166002900480601f016020809104026020016040519081016040528092919081815260200182805460018160011615610100020316600290048015610b9a5780601f10610b6f57610100808354040283529160200191610b9a565b820191906000526020600020905b815481529060010190602001808311610b7d57829003601f168201915b505050505090806002018054600181600116156101000203166002900480601f016020809104026020016040519081016040528092919081815260200182805460018160011615610100020316600290048015610c385780601f10610c0d57610100808354040283529160200191610c38565b820191906000526020600020905b815481529060010190602001808311610c1b57829003601f168201915b5050505050908060030154908060040160009054906101000a900460ff16908060040160019054906101000a900473ffffffffffffffffffffffffffffffffffffffff16905086565b828054600181600116156101000203166002900490600052602060002090601f016020900481019282601f10610cc257805160ff1916838001178555610cf0565b82800160010185558215610cf0579182015b82811115610cef578251825591602001919060010190610cd4565b5b509050610cfd9190610d4f565b5090565b6040518060c0016040528060008152602001606081526020016060815260200160008152602001600015158152602001600073ffffffffffffffffffffffffffffffffffffffff1681525090565b610d7191905b80821115610d6d576000816000905550600101610d55565b5090565b9056fea265627a7a723158207adeabfbfe61e321bb99f4f7fdae7718e9a64949c0e7fc42f0282c6c27b384b664736f6c63430005100032",
  "source": "pragma solidity ^0.5.0;\n\ncontract Marketplace\n{\n    uint public index; \n    struct Note\n    {\n        uint id; \n        string link; \n        string name; \n        uint price; \n        bool purchased; \n        address payable owner; \n    }\n    \n    event NoteCreated\n    (\n        uint id, \n        string link,  \n        string name, \n        uint price, \n        bool purchased,  \n        address payable owner \n    ); \n    \n    event NotePurchased\n    (\n        uint id, \n        string link,  \n        string name, \n        uint price, \n        bool purchased,  \n        address payable owner \n    ); \n    \n    \n    \n    \n    \n    mapping(uint => Note) public listings;\n    function createListing(string memory _link, string memory _name, uint _price) public\n    {\n        index++; \n        listings[index] = Note(index, _link, _name, _price, false, msg.sender); \n        \n        emit NoteCreated(index, _link, _name, _price, false, msg.sender); \n        \n        \n        \n    }\n    \n    function purchaseNote(uint _noteId) payable public\n    {\n        Note memory _product = listings[_noteId]; \n        address payable _receipient = _product.owner;\n        require(msg.value >= _product.price);\n        require(!_product.purchased);\n      \n        _product.owner = msg.sender; \n        _product.purchased = true; \n        listings[_noteId] = _product; \n        address(_receipient).transfer(msg.value); \n        emit NoteCreated(index, _product.link, _product.name, _product.price, _product.purchased, _product.owner); \n        \n        \n        \n        \n    }\n    \n    \n}\n\n\n\n",
  "sourcePath": "/home/gaurav/Desktop/Projects/Java Collections/Complete Blockchain App /marketplace/src/contracts/Marketplace.sol",
  "compiler": {
    "name": "solc",
    "version": "0.5.16+commit.9c3226ce.Emscripten.clang"
  },
  "schemaVersion": "3.4.3",
  "updatedAt": "2021-09-28T09:29:12.860Z",
  "networkType": "ethereum",
  "devdoc": {
    "methods": {}
  },
  "userdoc": {
    "methods": {}
  }
}